:1000000086EF02F00000000000EF00F000000000AA
:0A0010000000000000000000F3D71C
:0C001C00060E0D6E0D2EFED70000120027
:0A002800F9DF8A8AF7DF8A9A1200D6
:06003200000000001200B6
:0E0038008A9A8A848A96CCC283FFF2DF120075
:100046008A948A96B80E0201CC11836EEADF1200FA
:100056007F0E0201CC15016E01C0CCF201AC03D0BB
:0C0066008A808A9202D08A908A8212005E
:10007200FF0E956EDDDFDCDF8A848A9A8A868A8AA1
:10008200CCDF83CFCCF28A9A8A96D2DFD1DF956A0F
:06009200CCC200F01200D8
:100098007F0E0201CC15006E00C0CCF28A948A96BD
:1000A800BF0E001600C0CCF2008C00C0CCF200C01D
:0600B80083FFB6DF120019
:1000BE000B6A0A6A096A00500402F4CF09F0F3CF02
:1000CE0008F001500502F4CF0BF0F3CF0AF0005008
:1000DE000502F3500926F4500A22E86A0B22015059
:1000EE000402F3500926F4500A22E86A0B2208C0D3
:1000FE0000F009C001F00AC002F00BC003F01200BC
:10010E00000E0201C65D0AE3C6517F0807E3000E2A
:10011E00C75D04E3C7513F0801E301D04AD0C6C210
:10012E00CCF292DFC7C2CCF2CC33CC9FCC33CC9F77
:10013E00CC33CC9F81DFC6C2CCF2A7DF93DF00C0E9
:10014E00CBF290DF00C0CBF2C7C2CCF2CC33CC9F47
:10015E00CC33CC9FCC33CC9F6FDFC6C2CCF295DFB5
:10016E00070EC715006E00C0C9F200C001F0010EE7
:10017E00006E015004E000360090FF0FFBD700C068
:10018E00C9F2001CCA6F09D0CA51CB170FD0C95182
:10019E00CB130CD0C951CB1B09D0C851000AF4E0C7
:1001AE00C851010AF4E0C851020AF4E0CBC2CCF205
:0401BE003CDF120010
:1001C2000201BE51070801E282D0AE51BC5D006E51
:1001D200AFC201F0000E0156B3C204F0000E056E6C
:1001E2006DDF00C0C4F201C0C5F2BDC2CCF253DF64
:1001F200BEC2CCF227DFC06BB351C05D49E2BD5134
:100202007F0801E264D0BDC2CCF224DFBEC2CCF2D0
:1002120019DFBDC2CCF23FDF2BDF00C0C1F228DF05
:1002220000C0C1F2BDC2CCF215DFBEC2CCF20ADF01
:10023200BDC2CCF230DFC451AB25F66EC551AC2144
:10024200F76E000EC5BFFF0EAD21F86E0900F5CFA7
:1002520000F000C0C2F2C44BC52B001CC36F09D012
:10026200C3C2C1F20FD0C2C2C1F20CD0C251C11B73
:1002720009D0BF51000AF4E0BF51010AF4E0BF51B6
:10028200020AF4E0C1C2CCF2D6DEBD2BC02BB4D739
:10029200BDC2CCF2DFDEBEC2CCF2D4DEBDC2CCF235
:1002A200FADEFF0EC26FC36B0CD0C2C2C1F2C2C271
:1002B200CCF2C1DE0CD0C3C2C1F2C3C2CCF2BBDEEF
:1002C20006D0BF51000AF1E0BF51010AF4E012006A
:1002D200000E0201BE5D04E3BE517F0801E301D0BE
:1002E20027D0000EBC5DD8A0BC6BBC513F0802E217
:1002F2003F0EBC6F000EBD5DD8A0BD6BBD513F0867
:1003020002E23F0EBD6FBC51BD5D06E2BCC2C0F24F
:10031200BDC2BCF2C0C2BDF2BC51BD5D09E3BEC2EA
:10032200C6F2BCC2C7F2BFC2C8F2F0DEBC2BF4D721
:020332001200B7
:10033400000E0201BE5D04E3BE513F0801E301D09B
:1003440027D0000EBC5DD8A0BC6BBC517F0802E274
:100354007F0EBC6F000EBD5DD8A0BD6BBD517F0884
:1003640002E27F0EBD6FBC51BD5D06E2BCC2C0F2AD
:10037400BDC2BCF2C0C2BDF2BC51BD5D09E3BCC28A
:10038400C6F2BEC2C7F2BFC2C8F2BFDEBC2BF4D7EE
:02039400120055
:100396008A908A820201B76BB75107080EE3B7C28B
:1003A600CCF24EDEB66BB6513F0805E3B5C2CCF2D1
:1003B60040DEB62BF8D7B72BEFD78A928A80B76B79
:1003C600B75107080EE3B7C2CCF23ADEB66BB651A8
:1003D6003F0805E3B5C2CCF22CDEB62BF8D7B72B17
:0403E600EFD712003B
:1003EA000201B06BB16BB26B9398939A9394939604
:1003FA00939093928A98956A8A948A968A908A8226
:10040A008A883F0E836E0BDEC00E836E08DE8A80FA
:10041A008A923F0E836E03DEC00E836E00DE1200E8
:10042A000900F5CFE6FF0006FBE10106F9E112003B
:10043A00B5C2BCF2B7C2BDF2B6C2BEF2B9C2BFF211
:10044A0074DFB5C2BCF2B7C2BDF2B8C2BEF2B9C25D
:10045A00BFF26BDFB6C2BCF2B8C2BDF2B5C2BEF221
:10046A00B9C2BFF231DFB6C2BCF2B8C2BDF2B7C27E
:0A047A00BEF2B9C2BFF228DF120083
:100484000201BA6BB051000A0EE1050EB36F070EFC
:10049400B46F800EAB6F0B0EAC6F000EAD6F200E01
:1004A400AE6F000EAF6FBA51B525E96E000EB621DE
:1004B400EA6EEE5216E0BA51B525E96E000EB62189
:1004C400EA6EEECFBCF2B7C2BDF2B8C2BEF2B9C298
:1004D400BFF275DEB351010F006E0050B727BA2B7F
:0404E400E2D7120049
:1004E800B5C2ABF2B6C2ACF2B7C2ADF2BAC2AEF2A6
:1004F800BBC2AFF2B8C2B3F2B9C2B4F2010E020184
:04050800B06F1200BE
:10050C0012EC07F00F0EC16EC290070EB46E050E02
:10051C000201A76F000EA86F020EA96F000EAA6F42
:10052C00040EA36F000EA46F060EA56F000EA66F2F
:10053C0056DFB56B2ADFB56B28DF600EB56F0D0E7D
:10054C00B66F000EB76F030EB86F050EB96F200EA5
:10055C00BA6F000EBB6FC2DF590EB56F010EB66FCE
:10056C00050EB76F030EB86F020EB96F85DF740EF0
:10057C00B56F010EB66F050EB76F040EB86F020E95
:10058C00B96F7ADF050EB56F200EB66F220EB76FFE
:10059C00280EB86F010EB96F4ADF480EB56F200EEA
:1005AC00B66F670EB76F280EB86F010EB96F3FDFCD
:1005BC0084A06CD0B56BE9DE240EB56F010EB66F5E
:1005CC00B76BB86B020EB96F57DF600EB56F0D0EBF
:1005DC00B66F000EB76F030EB86F050EB96F200E15
:1005EC00BA6F000EBB6F7ADF390EB56F010EB66FA6
:1005FC00B76B010EB86F020EB96F3EDF040EB56F0C
:10060C00010EB66FB76B020EB86F020EB96F34DF06
:10061C00550EB56F000EB66FB76B030EB86F020EAA
:10062C00B96F2ADF740EB56F000EB66FB76B040E80
:10063C00B86F020EB96F20DF150EB56F000EB66FD6
:10064C00B76B050EB86F020EB96F16DF330EB56FB0
:10065C00000EB66FB76B060EB86F020EB96F0CDFDB
:10066C00D30EB56F000EB66FB76B070EB86F020ED8
:10067C00B96F02DF580EB56F380EB66F7F0EB76FBD
:10068C003F0EB86F010EB96FD2DE2BD180A2F9D01C
:10069C00B56B7BDEF40EB56F000EB66FB76BB86B37
:1006AC00020EB96FE9DE950EB56F000EB66FB76B23
:1006BC00010EB86F020EB96FDFDE640EB56F090E56
:1006CC00B66F7F0EB76F110EB86F010EB96FAFDE3C
:1006DC00B40EB56F000EB66FB76B030EB86F020E8B
:1006EC00B96FCADE640EB56F180EB66F7F0EB76F9A
:1006FC00200EB86F010EB96F9ADE8F0EB56F010E1A
:10070C00B66FB76B050EB86F020EB96FB5DE640E1F
:10071C00B56F290EB66F7F0EB76F300EB86F010E26
:10072C00B96F85DE1D0EB56F020EB66FB76B070E77
:10073C00B86F020EB96FA0DE640EB56F380EB66FCF
:10074C007F0EB76F3F0EB86F010EB96F70DE80A0D1
:10075C0097D0B56B1ADE3C0EB56F020EB66FB76B49
:10076C00010EB86F020EB96F87DEED0EB56F010E7C
:10077C00B66F050EB76F030EB86F020EB96F7CDE45
:10078C00060EB56F020EB66F050EB76F040EB86F7E
:10079C00020EB96F71DE070EB56F200EB66F260E06
:1007AC00B76F280EB86F010EB96F41DE480EB56FEA
:1007BC00200EB66F670EB76F280EB86F010EB96FAB
:1007CC0036DE80A210D0B56BE0DD780EB56F020E70
:1007DC00B66F050EB76F030EB86F020EB96F4CDE15
:1007EC00A74BA82B4CD084A44AD0000E006EA85165
:1007FC00005C02E1A751000812E2B56BC6DD8F0E5A
:10080C00B56F020EB66F050EB76F030EB86F020E02
:10081C00B96F32DE010EA75F000EA85B30D0B56B4E
:10082C00B4DD550EB56F020EB66F050EB76F030E25
:10083C00B86F020EB96F20DE6E0EB56F020EB66F7A
:10084C00050EB76F050EB86F020EB96F15DEE40E0C
:10085C00B56F010EB66F050EB76F060EB86F020EB0
:10086C00B96F0ADE0D0EB56F310EB66F240EB76F71
:10087C00390EB86F010EB96FDADDA76BA86BA1D773
:10088C0066D784A22ED0B56B80DDAE0EB56F010E8F
:10089C00B66F050EB76F030EB86F020EB96FECDDB5
:1008AC00C90EB56F010EB66F050EB76F040EB86F9B
:1008BC00020EB96FE1DD050EB56F200EB66F220E7C
:1008CC00B76F280EB86F010EB96FB1DD480EB56F5A
:1008DC00200EB66F670EB76F280EB86F010EB96F8A
:0608EC00A6DD66D6FFD771
:100E240010EE15F08E0E006E030E016EF20EF66ECD
:0E0E3400080EF76E000EF86E15EC02F01200BC
:1008F2002C41205A4154494D20505554454D2044D5
:0E0902005255474F472054415354455241002F
:1009100050524F495A564553544920494C4920504A
:100920005245555A4554492050524F495A564F4402
:020930002C0099
:1009320043452056414D205245434920504F524590
:0F094200442050524F495A564F44412C4E4100C9
:100951004B4F4A4920544153544552204D4F5A451B
:100961005445205052494349204953544F4D20206A
:010971000085
:10097200504F474F4E534B492041475245474154F0
:0F09820020202020202020202020202041300075
:1009910044564F54414B544E492044495A454C20EA
:0F09A1004D4F544F522020202020202045310060
:1009B000414B4F204A45204E41205354414E4A5509
:1009C0002E2020202020204E415A41442845312904
:0109D0000026
:1009D1004B4F5249534E49434B49204D454E4900D7
:1009E100434520534520504F4A4156495449204ED2
:1009F1004F56492050524F5A4F52204B4F4A4900AF
:100A0100555055545354564F205A412055504F5428
:050A11005245425500B2
:100A16004B41444120495A41424552455445204F95
:100A26005043494A55204D454E492C5441444100B6
:100A36005550555453564F20202020202020204723
:0B0A46004C41564E49204D454E4900E2
:100A51002020204530202020202020202020202060
:0B0A6100202020204131202020200018
:100A6C00524144494C494341202020202020202041
:0F0A7C0020202020202020202020202045300076
:100A8B005550555453564F202020202020202047CE
:0B0A9B004C41564E49204D454E49008D
:100AA600202020453020202020202020202020200B
:0B0AB6002020202041312020202000C3
:090AC100202020204131202000FA
:100ACA0050524F495A564544492020202020202080
:090ADA0020505245555A4D4900C7
:100AE30020202020413120202020202020202020D1
:070AF3002020202045320005
:100AFA004F534F56494E41202020202020202020AD
:0F0B0A00202020202020202020202020453200E5
:100B19002020202020202020504F474F4E534B4962
:090B2900204147524547415400A8
:100B320050524F495A564F4441204E454D41204E46
:090B420041205354414E4A550074
:0A0B4B0050524F495A5645444900E4
:100B550050524F495A564F44204A452050524F490A
:070B65005A564544454E00BD
:100B6C0050524F495A564F44204A452050524555F1
:040B7C005A45540082
:100B8000000000000000005F0000000700070014E4
:100B90007F147F14242A7F2A1223130864623649A3
:100BA0005522500005030000001C22410000412294
:100BB0001C00082A1C2A0808083E080800503000BB
:100BC000000808080808003030000020100804025F
:100BD0003E5149453E00427F400042615149462115
:100BE00041454B311814127F1027454545393C4A81
:100BF00049493001710905033649494936064949D1
:100C0000291E003636000000563600000008142267
:100C1000411414141414412214080002015109064D
:100C2000324979413E7E1111117E7F494949363E54
:100C3000414141227F4141221C7F494949417F096D
:100C40000901013E414151327F0808087F00417F80
:100C500041002040413F017F081422417F40404035
:100C6000407F0204027F7F0408107F3E4141413EE5
:100C70007F090909063E4151215E7F09192946462F
:100C80004949493101017F01013F4040403F1F2058
:100C900040201F7F2018207F63140814630304780A
:100CA0000403615149454300007F4141020408109B
:100CB0002041417F000004020102044040404040C6
:100CC000000102040020545454787F4844443838CA
:100CD00044444420384444487F3854545418087ECF
:100CE000090102081454543C7F0804047800447D30
:100CF00040002040443D00007F10284400417F40D8
:100D0000007C041804787C0804047838444444388F
:100D10007C14141408081414187C7C080404084873
:100D200054545420043F4440203C4040207C1C202C
:100D300040201C3C4030403C44281028440C50507B
:100D4000503C4464544C44000836410000007F008D
:100D500000004136080008082A1C08081C2A080858
:100D6000000000005C000C000C7C287C7C447C248F
:100D70001048285408000C00384400443800201063
:100D8000081038108040001010100040002010089B
:100D9000384438007C006454484454281C107C4C6F
:100DA000542438542004740C285428085438005013
:100DB0000080500010284428282844281004540893
:100DC000384C5C7814787C54283844447C44387C13
:100DD00054447C14043844347C107C007C00204053
:100DE0003C7C106C7C40407C087C7C047C7C447C9B
:100DF0007C14083844787C1468485424047C047CAF
:100E0000407C3C403C7C207C6C106C1C601C64541E
:100E10004C7C4400081020447C000804088080803A
:030E2000040800C3
:020000040030CA
:0D000100021F1EFF8381FF0FC00FE00F40A4
:00000001FF
