:10000000A5EF01F00000000000EF00F0000000008C
:0A0010000000000000000000F3D71C
:0C001C00060E0D6E0D2EFED70000120027
:0A002800F9DF8A8AF7DF8A9A1200D6
:06003200000000001200B6
:100038000B6A0A6A096A00500402F4CF09F0F3CF88
:1000480008F001500502F4CF0BF0F3CF0AF000508E
:100058000502F3500926F4500A22E86A0B220150DF
:100068000402F3500926F4500A22E86A0B2208C059
:1000780000F009C001F00AC002F00BC003F0120042
:100088007F0E04019715006E00C097F48A948A9633
:10009800BF0E001600C097F4008C00C097F400C093
:0600A80083FFBEDF120021
:1000AE007F0E04019715016E01C097F401AC03D0C9
:0C00BE008A808A9202D08A908A82120006
:0E00CA008A9A8A848A9697C483FFA9DF12005F
:1000D8008A948A96B80E04019711836EA1DF1200E4
:1000E800FF0E956EA2DFA1DF8A848A9A8A868A8AA1
:1000F80091DF83CF97F48A9A8A9697DF96DF956A7D
:0601080097C400F0120094
:10010E0004018F51070801E282D07C518D5D006E93
:10011E007DC401F0000E015674C404F0000E056E8D
:10012E0084DF00C095F401C096F48EC497F4A5DF69
:10013E008FC497F4CADF916B7451915D49E28E5171
:10014E007F0801E264D08EC497F4AADF8FC497F4BF
:10015E00BCDF8EC497F491DFC0DF00C092F4BDDF28
:10016E0000C092F48EC497F49BDF8FC497F4ADDF7A
:10017E008EC497F482DF95517525F66E96517621D1
:10018E00F76E000E96BFFF0E7721F86E0900F5CFC1
:10019E0000F000C093F4954B962B001C946F09D081
:1001AE0094C492F40FD093C492F40CD09351921B3A
:1001BE0009D09051000AF4E09051010AF4E09051F8
:1001CE00020AF4E092C497F479DF8E2B912BB4D708
:1001DE008EC497F465DF8FC497F477DF8EC497F4DF
:1001EE004CDFFF0E936F946B0CD093C492F493C4B8
:1001FE0097F464DF0CD094C492F494C497F45EDF49
:10020E0006D09051000AF1E09051010AF4E012007C
:10021E000401796B7A6B7B6B9398939A9394939674
:10022E00939093928A98956A8A948A968A908A82F3
:10023E008A883F0E836EF1DEC00E836EEEDE8A80FC
:10024E008A923F0E836EE9DEC00E836EE6DE1200EA
:10025E000900F5CFE6FF0006FBE10106F9E1120009
:10026E008A908A820401886B885107080EE388C43D
:10027E0097F42BDF876B87513F0805E386C497F40D
:10028E001DDF872BF8D7882BEFD78A928A80886B51
:10029E00885107080EE388C497F417DF876B8751E0
:1002AE003F0805E386C497F409DF872BF8D7882B20
:0402BE00EFD7120064
:1002C20004018B6B7951000A0EE1050E746F070E63
:1002D200786F530E756F0D0E766F000E776F200ECE
:1002E2007C6F000E7D6F8B518625E96E000E872193
:1002F200EA6EEE5216E08B518625E96E000E8721DA
:10030200EA6EEECF8DF488C48EF489C48FF48AC469
:1003120090F4FCDE7451010F006E005088278B2B85
:04032200E2D712000C
:1003260086C475F487C476F488C477F48BC47CF4E9
:100336008CC47DF489C474F48AC478F4010E040173
:04034600796F1200B9
:10034A00FBEC07F00F0EC16EC290070EB46E050EDD
:10035A000401846F000E856F020E806F000E816F9C
:10036A00040E826F000E836F060E7E6F000E7F6F83
:10037A0051DF866B77DF330E866F0F0E876F000EA5
:10038A00886F030E896F050E8A6F200E8B6F000E21
:10039A008C6FC4DFE90E866F030E876F050E886FB8
:1003AA00030E896F020E8A6F87DF040E866F040EB2
:1003BA00876F050E886F040E896F020E8A6F7CDFC5
:1003CA0084A061D0866B4EDF5F0E866F040E876F46
:1003DA00886B896B020E8A6F6FDF330E866F0F0E82
:1003EA00876F000E886F030E896F050E8A6F200EC5
:1003FA008B6F000E8C6F92DF1F0E866F040E876F55
:10040A00886B010E896F020E8A6F56DF3F0E866F68
:10041A00040E876F886B020E896F020E8A6F4CDF9B
:10042A00CA0E866F030E876F886B030E896F020EE2
:10043A008A6F42DF570E866F010E876F886B040E34
:10044A00896F020E8A6F38DF780E866F010E876F0A
:10045A00886B050E896F020E8A6F2EDF960E866FE5
:10046A00010E876F886B060E896F020E8A6F24DF72
:10047A00070E866F010E876F886B070E896F020E53
:10048A008A6F1ADF30D280A214D2866BEBDE280E76
:10049A00866F010E876F886B896B020E8A6F0CDF7D
:1004AA00380E866F010E876F886B010E896F020EF8
:1004BA008A6F02DF010E866F020E876F886B030E4A
:1004CA00896F020E8A6FF8DE200E866F020E876F22
:1004DA00886B050E896F020E8A6FEEDE3F0E866FFD
:1004EA00020E876F886B070E896F020E8A6FE4DE31
:1004FA0080A076D0866BB6DEB80E866F010E876F47
:10050A00886B010E896F020E8A6FD6DED10E866F56
:10051A00010E876F050E886F030E896F020E8A6FB0
:10052A00CBDEEA0E866F010E876F050E886F040E0A
:10053A00896F020E8A6FC0DE80A210D0866B92DEAF
:10054A00450E866F000E876F050E886F030E896F42
:10055A00020E8A6FB1DE844B852B41D084A43FD032
:10056A00000E006E8551005C02E18451000812E21F
:10057A00866B78DE5C0E866F000E876F050E886FBD
:10058A00030E896F020E8A6F97DE010E845F000EDA
:10059A00855B25D0866B66DE700E866F000E876FD0
:1005AA00050E886F030E896F020E8A6F85DE150E9F
:1005BA00866F000E876F050E886F050E896F020E13
:1005CA008A6F7ADE1F0E866F000E876F050E886FA0
:1005DA00060E896F020E8A6F6FDE846B856BACD74D
:1005EA0084A276D0866B3EDE280E866F000E876F59
:1005FA00886B010E896F020E8A6F5EDEC00E866FEF
:10060A00000E876F050E886F030E896F020E8A6FC0
:10061A0053DED90E866F000E876F050E886F040EA3
:10062A00896F020E8A6F48DE80A210D0866B1ADEAE
:10063A00F00E866F000E876F050E886F030E896FA6
:10064A00020E8A6F39DE804B812B41D084A43FD0C1
:10065A00000E006E8151005C02E18051000812E236
:10066A00866B00DE890E866F000E876F050E886F17
:10067A00030E896F020E8A6F1FDE010E805F000E65
:10068A00815B25D0866BEEDD9D0E866F000E876F2F
:10069A00050E886F030E896F020E8A6F0DDEB60E85
:1006AA00866F000E876F050E886F050E896F020E22
:1006BA008A6F02DE5E0E866F020E876F050E886FE6
:1006CA00060E896F020E8A6FF7DD806B816BACD7DD
:1006DA0084A076D0866BC6DD210E866F030E876FE7
:1006EA00886B010E896F020E8A6FE6DD310E866F06
:1006FA00030E876F050E886F030E896F020E8A6FCD
:10070A00DBDD4A0E866F030E876F050E886F040EB7
:10071A00896F020E8A6FD0DD80A210D0866BA2DDAF
:10072A00DD0E866F020E876F050E886F030E896FC6
:10073A00020E8A6FC1DD7E4B7F2B41D084A43FD04D
:10074A00000E006E7F51005C02E17E51000812E249
:10075A00866B88DDF40E866F020E876F050E886F32
:10076A00030E896F020E8A6FA7DD010E7E5F000EEF
:10077A007F5B25D0866B76DD080E866F030E876F4A
:10078A00050E886F030E896F020E8A6F95DDA80E1B
:10079A00866F030E876F050E886F050E896F020E2E
:1007AA008A6F8ADDB20E866F030E876F050E886F19
:1007BA00060E896F020E8A6F7FDD7E6B7F6BACD768
:1007CA0084A476D0866B4EDDBB0E866F030E876FD0
:1007DA00886B010E896F020E8A6F6EDD610E866F5D
:1007EA00030E876F050E886F030E896F020E8A6FDC
:1007FA0063DD7A0E866F030E876F050E886F040E0F
:10080A00896F020E8A6F58DD80A210D0866B2ADDAE
:10081A00910E866F030E876F050E886F030E896F20
:10082A00020E8A6F49DD824B832B41D080A03FD0D4
:10083A00000E006E8351005C02E18251000812E250
:10084A00866B10DDA60E866F020E876F050E886F07
:10085A00030E896F020E8A6F2FDD010E825F000E72
:10086A00835B25D0866BFEDCBA0E866F020E876F1D
:10087A00050E886F030E896F020E8A6F1DDDD30E77
:10088A00866F020E876F050E886F050E896F020E3E
:10089A008A6F12DD670E866F020E876F050E886FEC
:1008AA00060E896F020E8A6F07DD826B836BACD7E7
:1008BA001FD684A218D0866BD5DC700E866F020E06
:1008CA00876F050E886F030E896F020E8A6FF4DC3C
:1008DA008B0E866F020E876F050E886F040E896F66
:0A08EA00020E8A6FE9DC6CD5FFD71F
:100FF60010EE15F05F0E006E050E016EF40EF66E25
:0E100600080EF76E000EF86E2FEC01F01200CF
:0A08F40050524F495A56454449003E
:0908FE00202020204131202000BF
:100907002020202020202044564F54414B544E494C
:0D0917002044495A454C204D4F544F52008A
:1009240050524F495A564F44204A452050524F493D
:070934005A564544454E00F0
:10093B0050524F495A564F44204A45205052455524
:04094B005A455400B5
:10094F0050524F495A564F4441204E454D41204E2B
:09095F0041205354414E4A550059
:1009680050524F495A564F44204A452050524555F7
:040978005A45540088
:10097C0050524F495A564F4441204E454D41204EFE
:09098C0041205354414E4A55002C
:0A09950050524F495A56454449009C
:10099F0050524F495A5645444920202020202020AC
:0909AF0020505245555A4D4900F3
:1009B80020202020413120202020202020202020FD
:0709C8002020202045320031
:1009CF0050524F495A564F44204A452050524F4992
:0709DF005A564544454E0045
:1009E600414B4F204A45204E41205354414E4A55D3
:1009F6002E2020202020204E415A414428453129CE
:010A060000EF
:100A07004B4F5249534E49434B49204D454E4900A0
:100A1700504F474F4E534B4920414752454741544A
:0F0A2700202020202020202020202020413000CF
:100A36004B4F4A4920544153544552204D4F5A4535
:100A46005445205052494349204953544F4D202084
:010A5600009F
:100A57002C41205A4154494D20505554454D20446E
:0E0A67005255474F47205441535445524100C9
:100A750050524F495A564553544920494C492050E4
:100A85005245555A4554492050524F495A564F449C
:020A95002C0033
:100A97002020202020202020504F474F4E534B49E5
:090AA7002041475245474154002B
:100AB00050524F495A56454449202020202020209A
:090AC00020505245555A4D4900E1
:100AC90020202020413120202020202020202020EB
:070AD900202020204532001F
:100AE00044564F54414B544E492044495A454C209A
:0F0AF0004D4F544F522020202020202045310010
:100AFF00524144494C4943412020202020202020AE
:0F0B0F00202020202020202020202020453000E2
:100B1E004F534F56494E4120202020202020202088
:0F0B2E00202020202020202020202020453200C1
:090B3D002020202041312020007D
:090B460020202020413120200074
:100B4F005550555453564F20202020202020204709
:0B0B5F004C41564E49204D454E4900C8
:100B6A002020204530202020202020202020202046
:0B0B7A002020202041312020202000FE
:100B850050524F495A564F44204A452050524555D8
:040B95005A45540069
:100B990050524F495A564F4441204E454D41204EDF
:090BA90041205354414E4A55000D
:0A0BB20050524F495A56454449007D
:100BBC0050524F495A564F44204A452050524F49A3
:070BCC005A564544454E0056
:100BD30050524F495A564F44204A4520505245558A
:040BE3005A4554001B
:100BE70050524F495A564F4441204E454D41204E91
:090BF70041205354414E4A5500BF
:100C000020202020202020524144494C49434100CB
:100C100050524F495A564544492020202020202038
:090C200020505245555A4D49007F
:100C29002020202041312020202020202020202089
:070C390020202020453200BD
:100C400050524F495A564544492020202020202008
:090C500020505245555A4D49004F
:100C59002020202041312020202020202020202059
:070C69002020202041300093
:100C700050524F495A564F44204A452050524F49EE
:070C80005A564544454E00A1
:0A0C870050524F495A5645444900A7
:090C910020202020413120200028
:0F0C9A00202020202020204F534F56494E41004C
:100CA90043452056414D205245434920504F524516
:0F0CB900442050524F495A564F44412C4E41004F
:100CC8005550555453564F2020202020202020478F
:0B0CD8004C41564E49204D454E49004E
:100CE30020202045302020202020202020202020CC
:0B0CF300202020204131202020200084
:100CFE004B41444120495A41424552455445204FAB
:100D0E005043494A55204D454E492C5441444100CB
:100D1E00434520534520504F4A4156495449204E91
:100D2E004F56492050524F5A4F52204B4F4A49006E
:100D3E00555055545354564F205A412055504F54E8
:050D4E00524542550072
:100D5300000000000000005F00000007000700140F
:100D63007F147F14242A7F2A1223130864623649CE
:100D73005522500005030000001C224100004122BF
:100D83001C00082A1C2A0808083E080800503000E6
:100D9300000808080808003030000020100804028A
:100DA3003E5149453E00427F400042615149462140
:100DB30041454B311814127F1027454545393C4AAC
:100DC30049493001710905033649494936064949FC
:100DD300291E003636000000563600000008142293
:100DE3004114141414144122140800020151090679
:100DF300324979413E7E1111117E7F494949363E80
:100E0300414141227F4141221C7F494949417F0998
:100E13000901013E414151327F0808087F00417FAB
:100E230041002040413F017F081422417F40404060
:100E3300407F0204027F7F0408107F3E4141413E10
:100E43007F090909063E4151215E7F09192946465A
:100E53004949493101017F01013F4040403F1F2083
:100E630040201F7F2018207F631408146303047835
:100E73000403615149454300007F414102040810C6
:100E83002041417F000004020102044040404040F1
:100E9300000102040020545454787F4844443838F5
:100EA30044444420384444487F3854545418087EFA
:100EB300090102081454543C7F0804047800447D5B
:100EC30040002040443D00007F10284400417F4003
:100ED300007C041804787C080404783844444438BB
:100EE3007C14141408081414187C7C08040408489F
:100EF30054545420043F4440203C4040207C1C2058
:100F030040201C3C4030403C44281028440C5050A6
:100F1300503C4464544C44000836410000007F00B8
:100F230000004136080008082A1C08081C2A080883
:100F3300000000005C000C000C7C287C7C447C24BA
:100F43001048285408000C0038440044380020108E
:100F530008103810804000101010004000201008C6
:100F6300384438007C006454484454281C107C4C9A
:100F7300542438542004740C28542808543800503E
:100F830000805000102844282828442810045408BE
:100F9300384C5C7814787C54283844447C44387C3E
:100FA30054447C14043844347C107C007C0020407E
:100FB3003C7C106C7C40407C087C7C047C7C447CC6
:100FC3007C14083844787C1468485424047C047CDA
:100FD300407C3C403C7C207C6C106C1C601C64544A
:100FE3004C7C4400081020447C0008040880808066
:030FF300040800EF
:020000040030CA
:0D000100021F1EFF8381FF0FC00FE00F40A4
:00000001FF
